:020000040800F2
:10000000400C00204D0100081D040008C903000831
:100010001904000895010008910B00080000000079
:10002000000000000000000000000000F3060008CF
:100030009901000800000000A50400080508000858
:1000400067010008670100086701000867010008F0
:1000500067010008670100086701000867010008E0
:1000600067010008670100086701000867010008D0
:1000700067010008670100086701000867010008C0
:1000800067010008670100086701000867010008B0
:1000900067010008670100086701000867010008A0
:1000A0006701000867010008670100086701000890
:1000B0006701000869080008670100086701000877
:1000C0006701000867010008670100086701000870
:1000D00067010008F10900086701000867010008CE
:1000E0006701000867010008670100086701000850
:1000F0006701000867010008670100086701000840
:10010000670100086701000867010008670100082F
:10011000670100086701000867010008670100081F
:10012000670100086701000867010008670100080F
:10013000DFF80CD000F01CF8004800478D0C0008D8
:10014000400C002080F30888704700000648804774
:1001500006480047FEE7FEE7FEE7FEE7FEE7FEE7AC
:10016000FEE7FEE7FEE7FEE70908000831010008A8
:10017000064C074D06E0E06840F0010394E80700F4
:1001800098471034AC42F6D3FFF7D6FFBC0D0008F9
:10019000DC0D000800BFFEE77047000030B50446E4
:1001A00004254FF4302000F06FF80546042D17D1D8
:1001B0000C48006940F002000A49086108464461A1
:1001C000006940F0400008614FF4302000F05CF816
:1001D00005460448006941F6FD710840014908617F
:1001E000284630BD0020024004200B49C96801F0B8
:1001F000010109B101200EE00749C96801F00401BD
:1002000009B1022007E00449C96801F0100109B1F1
:10021000032000E0042070470020024003480069EA
:1002200040F0800001490861704700000020024052
:1002300070B504460D460426F00200F025F8064687
:10024000042E11D10948006940F0010007490861F6
:100250002580F00200F018F806460448006941F6CF
:10026000FE71084001490861304670BD002002401F
:1002700002480349486003484860704723016745C6
:1002800000200240AB89EFCD00B502460423FFF702
:10029000ABFF034603E0FFF7A7FF0346521E012B07
:1002A00001D1002AF7D102B90523184600BD2DE976
:1002B000F0410246002500260020002300240027EC
:1002C00091F803C00CF00F0591F803C00CF0100C6E
:1002D000BCF1000F03D091F802C04CEA050591F87B
:1002E00000C0BCF1000F31D0146800202BE04FF0AB
:1002F000010C0CFA00F3B1F800C00CEA03069E42B0
:1003000020D183004FF00F0C0CFA03F7BC4305FA21
:1003100003FC4CEA040491F803C0BCF1280F06D199
:100320004FF0010C0CFA00FCC2F814C00AE091F87E
:1003300003C0BCF1480F05D14FF0010C0CFA00FCD2
:10034000C2F810C0401C0828D1D31460B1F800C016
:10035000BCF1FF0F34DD546800202EE000F1080CE2
:100360004FF0010808FA0CF3B1F800C00CEA0306DC
:100370009E4221D183004FF00F0C0CFA03F7BC43CF
:1003800005FA03FC4CEA040491F803C0BCF1280F01
:1003900005D100F1080C08FA0CF8C2F8148091F8A5
:1003A00003C0BCF1480F07D100F1080C4FF0010861
:1003B00008FA0CF8C2F81080401C0828CED354600C
:1003C000BDE8F0810161704700BFFEE708B501217B
:1003D000482000F079F82020ADF8000010208DF8BA
:1003E000030003208DF8020069460948FFF75FFF0C
:1003F00020210748FFF7E6FF2020ADF800006946FE
:100400000448FFF754FF20210248FFF7DBFF08BD37
:10041000000C01400018014000BFFEE770470000DB
:1004200070B5002100230F22C47804B3154C246852
:1004300004F4E064C4F5E064210AC1F10403CA4095
:10044000447804FA03F184781440214309010E4CE6
:100450000678A155047804F01F050124AC40057806
:100460006D11AD0005F1E025C5F8004109E0047803
:1004700004F01F050124AC40044D0678761145F8C0
:10048000264070BD0CED00E000E400E080E100E0FB
:1004900002490143024A1160704700000000FA055A
:1004A0000CED00E07047000029B1064AD269024312
:1004B000044BDA6104E0034AD2698243014BDA61FA
:1004C000704700000010024029B1064A92690243B9
:1004D000044B9A6104E0034A92698243014B9A619A
:1004E000704700000010024030B5002100220024B7
:1004F00000232D4D6D6805F00C0121B1042905D0B4
:10050000082923D105E0294D056022E0274D05602B
:100510001FE0254D6D6805F47012234D6D6805F4DC
:100520008034022505EB92421CB9214D55430560EC
:100530000BE01D4D6D6805F400351DB11C4D554394
:10054000056002E0194D5543056002E0174D056056
:1005500000BF00BF144D6D6805F0F0010909154D8D
:100560006B5C0568DD4045600F4D6D6805F4E0612A
:10057000090A104D6B5C4568DD4085600A4D6D6869
:1005800005F46051C90A0B4D6B5C4568DD40C560E0
:10059000054D6D6805F44041890B074D6B5CC568DE
:1005A000B5FBF3F5056130BD0010024000127A0082
:1005B00000093D00290000203900002030B5034625
:1005C0000C461546002207E0184600F008F824F80B
:1005D00012009B1C501C82B2AA42F5DB30BD0146C2
:1005E000088870472DE9F05F80468A461746B8F1C3
:1005F000006F02D33348804501D3BDE8F09FFFF779
:1006000037FEA8F1006B4FEADB25CBF34909C9F5AA
:100610008064A74200DC3C464DE04FF0006101EBF6
:10062000C5204A142849FFF7C9FF00260BE009EB53
:100630000600254931F810004FF6FF71884200D0BE
:1006400003E0701C86B2A642F1DB00BFA6421BDAB3
:100650004FF0006101EBC520FFF7A0FD002608E088
:100660003AF8160006EB0901174A22F81100701C2F
:1006700086B2A642F4DB4FF0006101EBC5204A14BC
:10068000114900F023F804E022465146404600F0AC
:100690001DF8A74200D10FE06D1C4FF000090AEBD6
:1006A000440AA044381B87B2B7F5806F02DD4FF4CF
:1006B000806400E03C46B0E700BFFFF7AFFD00BF3D
:1006C0009BE700000000080800D800202DE9F04159
:1006D00005460E461746002407E036F81410284653
:1006E000FFF7A6FDAD1C601C84B2BC42F5DBBDE883
:1006F000F081704710B500F001F810BD0CB5002076
:10070000019000903348006840F48030314908601F
:1007100000BF3048006800F4003000900198401C91
:100720000190009818B90198B0F5A06FF1D129484F
:10073000006800F4003010B10120009001E00020BA
:1007400000900098012843D12348006840F0100031
:10075000214908600846006820F003000860084648
:10076000006840F0020008601A4840681949486073
:100770000846406848600846406840F48060486029
:100780000846406820F47C1048600846406840F401
:10079000E81048600846006840F08070086000BFBC
:1007A0000C48006800F000700028F9D00948406843
:1007B00020F00300074948600846406840F0020006
:1007C000486000BF0348406800F00C000828F9D1D9
:1007D0000CBD00000010024000200240042808D197
:1007E0004FF0E021096941F004014FF0E02211616E
:1007F00007E04FF0E021096921F004014FF0E02209
:10080000116170477047000010B51348006840F050
:1008100001001149086008464068104908400E4927
:100820004860084600680E4908400B4908600846C1
:10083000006820F4802008600846406820F4FE002C
:1008400048604FF41F008860FFF754FF4FF00060CE
:100850000449086010BD0000001002400000FFF8CD
:10086000FFFFF6FE08ED00E010B50121074800F09B
:1008700050F848B10121054800F03CF804480078E0
:10088000012801D10349087010BD00000004004098
:10089000280000201C0000207FB505460C460121E1
:1008A0000220FFF701FEADF80850ADF8044000202B
:1008B000ADF80A00ADF8060001A90D4800F046F8B1
:1008C000012211460A4800F035F81D208DF800007D
:1008D00003208DF801008DF8020001208DF803003F
:1008E0006846FFF79DFD0121014800F006F87FBD35
:1008F00000040040CA430282704721B1028842F0DE
:100900000102028004E002884FF6FE731A40028062
:10091000704730B50246002000230024158A05EAFE
:100920000103958905EA010413B10CB1012000E02F
:10093000002030BD1AB183890B43838102E0838993
:100940008B438381704781857047000000220288B5
:100950001D4B98420ED01D4B98420BD0B0F1804FEA
:1009600008D01B4B984205D01A4B984202D01A4B24
:10097000984204D14FF68F731A404B881A43174B95
:10098000984207D0164B984204D04FF6FF431A40C6
:10099000CB881A4302808B8883850B8803850A4B9A
:1009A00098420BD0094B984208D00E4B984205D084
:1009B0000D4B984202D00D4B984201D10B7A038621
:1009C0000123838270470000002C01400034014065
:1009D0000004004000080040000C004000100040EF
:1009E0000014004000400140004401400048014024
:1009F00010B51348007810B901201149087011484A
:100A0000008800F02000D0B10E48001D0088C4B25C
:100A10000B480078012804D141F288310A48FFF7D9
:100A200092FF0A480088B0F5484F08DA084807499D
:100A30000988445405480088401C0449088010BDBA
:100A4000280000200038014000040040260000205B
:100A50000010002021B1828942F40052828104E01A
:100A600082894DF6FF731A4082817047F0B50346C4
:100A7000002400260025002040F66A17B94200D164
:100A800000BF1846C1F3421401F01F06012707FA00
:100A900006F5012C01D10C3004E0022C01D11030FC
:100AA00000E014301AB107682F43076002E00768BE
:100AB000AF430760F0BD00002DE9F04786B0054662
:100AC0000E460024A24600BFA1460027B08900B10F
:100AD00000BF2F462C8A4CF6FF700440F088044378
:100AE0002C82AC894EF6F3100440B088318908435B
:100AF000718908430443AC81AC8A4FF6FF4004403F
:100B0000B0890443AC8201A8FFF7EEFC1F4887427E
:100B100002D1DDF810A001E0DDF80CA0A88900F4F6
:100B2000004040B10AEBCA0000EB0A1031684900EE
:100B3000B0FBF1F807E00AEBCA0000EB0A103168DD
:100B40008900B0FBF1F86420B8FBF0F00401200943
:100B5000642101FB1089A88900F4004040B13220D3
:100B600000EBC900B0FBF1F000F00700044308E01F
:100B7000322000EB09106421B0FBF1F000F00F000F
:100B800004432C8106B0BDE8F08700000038014026
:100B900000BFFEE702E008C8121F08C1002AFAD110
:100BA00070477047002001E001C1121F002AFBD1ED
:100BB0007047000010B56FF00400FFF70FFE0A4801
:100BC00000680A49B0FBF1F009490870084600784E
:100BD00000EB4001C1EBC0104FF6FF7101EAC0000D
:100BE0000449088010BD00000000002000127A00B7
:100BF000140000201600002010B5044620680749A4
:100C00000840B0F1005F08D16068054908602068BD
:100C1000FFF798FA02480068804710BD0000FE2FD9
:100C2000180000202DE9F05F06460F46904600248C
:100C3000B3463D46A1461CE068784FEA002A287872
:100C400050441FFA80FAAD1C2046611C8CB20E493C
:100C500021F810A0B4F5806F07D100244FF4806212
:100C60005846FFF7BFFC0BF5006B09F102001FFAB5
:100C700080F9C145E0D324B1224603495846FFF725
:100C8000B1FCBDE8F09F0000400000204FF4A060E0
:100C9000FFF7FEFB4FF4E13000F040F84FF4E15174
:100CA00042F21070FFF7F8FDFFF790FBFFF782FFAD
:100CB00000201349086022E01248007801281ED164
:100CC000002010490870002201210F48FFF732FE72
:100CD0000E48406800F07F40B0F1006F05D10C482D
:100CE00002880C490C48FFF79DFF0B48406800F054
:100CF0007F40B0F1006F02D10748FFF77DFFDBE7CF
:100D0000948121421C0000200004004000100020BB
:100D100026000020001000200000010810B586B059
:100D20000446012144F20400FFF7CEFB4FF40070AB
:100D3000ADF8140003208DF8160018208DF8170068
:100D400005A91C48FFF7B3FA4FF48060ADF8140012
:100D500004208DF8170005A91648FFF7A8FA2520EA
:100D60008DF8000002208DF801008DF802000120AE
:100D70008DF803006846FFF753FB01940020ADF89F
:100D80000800ADF80A00ADF80C00ADF810000C201A
:100D9000ADF80E0001A90848FFF78EFE012240F2CF
:100DA00025510548FFF762FE01210348FFF752FE77
:100DB00006B010BD0008014000380140DC0D0008FD
:100DC0000000002040000000940B00081C0E0008EA
:100DD00040000020C0DF0000A40B000800A24A046D
:100DE00000000000000000000102030406070809DB
:100DF00000000000000000000000000000000000F3
:100E000000000000000000000001020304010203D2
:0C0E1000040607080902040608000000A0
:0400000508000131BD
:00000001FF
